:020000040800F2
:1000000000000220B9460008251D0008271D000831
:10001000291D00082B1D00082D1D000800000000F0
:100020000000000000000000000000002F1D00087C
:10003000311D000800000000331D0008351D0008B8
:100040000947000809470008094700080947000850
:100050000947000809470008094700080947000840
:100060000947000809470008094700080947000830
:100070000947000809470008094700080947000820
:100080000947000809470008094700080947000810
:100090000947000809470008094700080947000800
:1000A00009470008094700080947000809470008F0
:1000B00009470008094700080947000809470008E0
:1000C00009470008094700080947000809470008D0
:1000D00009470008094700080947000809470008C0
:1000E00009470008094700080947000809470008B0
:1000F00009470008094700080947000809470008A0
:10010000094700080947000809470008094700088F
:10011000094700080947000809470008094700087F
:100120000947000809470008094700083D1D000865
:10013000094700080947000809470008094700085F
:10014000094700080947000809470008094700084F
:10015000094700080947000809470008094700083F
:10016000094700080947000809470008094700082F
:100170000947000809470008094700080000000077
:080180000947000809470008C7
:1001880010B5054C237833B9044B13B10448AFF3C9
:1001980000800123237010BD8801002000000000AA
:1001A800A849000808B5034B1BB103490348AFF33E
:1001B800008008BD000000008C010020A84900084C
:1001C80081F0004102E000BF83F0004330B54FEA00
:1001D80041044FEA430594EA050F08BF90EA020F6D
:1001E8001FBF54EA000C55EA020C7FEA645C7FEA00
:1001F800655C00F0E2804FEA5454D4EB5555B8BF23
:100208006D420CDD2C4480EA020281EA030382EA93
:10021800000083EA010180EA020281EA0303362D25
:1002280088BF30BD11F0004F4FEA01314FF4801CF8
:100238004CEA113102D0404261EB410113F0004F0A
:100248004FEA03334CEA133302D0524263EB4303C1
:1002580094EA050F00F0A780A4F10104D5F1200E5F
:100268000DDB02FA0EFC22FA05F2801841F10001BA
:1002780003FA0EF2801843FA05F359410EE0A5F18E
:1002880020050EF1200E012A03FA0EFC28BF4CF0BF
:10029800020C43FA05F3C01851EBE37101F0004575
:1002A80007D54FF0000EDCF1000C7EEB00006EEB82
:1002B8000101B1F5801F1BD3B1F5001F0CD349080C
:1002C8005FEA30004FEA3C0C04F101044FEA445263
:1002D80012F5800F80F09A80BCF1004F08BF5FEAEA
:1002E800500C50F1000041EB045141EA050130BDCA
:1002F8005FEA4C0C404141EB010111F4801FA4F16D
:100308000104E9D191F0000F04BF01460020B1FAC1
:1003180081F308BF2033A3F10B03B3F120020CDAF9
:100328000C3208DD02F1140CC2F10C0201FA0CF0D7
:1003380021FA02F10CE002F11402D8BFC2F1200C3C
:1003480001FA02F120FA0CFCDCBF41EA0C019040F2
:10035800E41AA2BF01EB0451294330BD6FEA04043B
:100368001F3C1CDA0C340EDC04F11404C4F1200226
:1003780020FA04F001FA02F340EA030021FA04F338
:1003880045EA030130BDC4F10C04C4F1200220FA8F
:1003980002F001FA04F340EA0300294630BD21FACD
:1003A80004F0294630BD94F0000F83F4801306BF93
:1003B80081F480110134013D4EE77FEA645C18BF87
:1003C8007FEA655C29D094EA050F08BF90EA020F1E
:1003D80005D054EA000C04BF1946104630BD91EA16
:1003E800030F1EBF0021002030BD5FEA545C05D119
:1003F8004000494128BF41F0004130BD14F5800458
:100408003CBF01F5801130BD01F0004545F0FE41CB
:1004180041F470014FF0000030BD7FEA645C1ABF00
:10042800194610467FEA655C1CBF0B46024650EA37
:10043800013406BF52EA033591EA030F41F4002163
:1004480030BD00BF90F0000F04BF0021704730B5E9
:100458004FF4806404F132044FF000054FF00001BE
:1004680050E700BF90F0000F04BF0021704730B57F
:100478004FF4806404F1320410F0004548BF404254
:100488004FF000013EE700BF42004FEAE2014FEAA9
:1004980031014FEA02701FBF12F07F4393F07F4F84
:1004A80081F06051704732F07F4208BF704793F087
:1004B8007F4F04BF41F40021704730B54FF460749A
:1004C80001F0004521F000411CE700BF50EA01029D
:1004D80008BF704730B54FF000050AE050EA010246
:1004E80008BF704730B511F0004502D5404261EBB6
:1004F80041014FF4806404F132045FEA915C3FF4F7
:10050800D8AE4FF003025FEADC0C18BF03325FEA93
:10051800DC0C18BF033202EBDC02C2F1200300FA44
:1005280003FC20FA02F001FA03FE40EA0E0021FA69
:1005380002F11444BDE600BF4FF0FF3C06E000BFE7
:100548004FF0010C02E000BF4FF0010C4DF804CD54
:100558004FEA410C7FEA6C5C4FEA430C18BF7FEA14
:100568006C5C1BD001B050EA410C0CBF52EA430C42
:1005780091EA030F02BF90EA020F0020704710F1C2
:10058800000F91EA030F58BF994208BF90422CBF51
:10059800D8176FEAE37040F0010070474FEA410C4A
:1005A8007FEA6C5C02D150EA013C07D14FEA430C68
:1005B8007FEA6C5CD6D152EA033CD3D05DF8040BD9
:1005C800704700BF8446104662468C46194663460B
:1005D80000E000BF01B5FFF7B7FF002848BF10F1E2
:1005E800000F01BD4DF808EDFFF7F4FF0CBF012027
:1005F80000205DF808FB00BF4DF808EDFFF7EAFFA3
:1006080034BF012000205DF808FB00BF4DF808ED5D
:10061800FFF7E0FF94BF012000205DF808FB00BF52
:100628004DF808EDFFF7CEFF94BF012000205DF8DC
:1006380008FB00BF4DF808EDFFF7C4FF34BF0120E9
:1006480000205DF808FB00BF53B94AB9002908BF6C
:1006580000281CBF4FF0FF314FF0FF3000F072B997
:10066800ADF1080C6DE904CE00F006F8DDF804E001
:10067800DDE9022304B070472DE9F047089E0446DF
:100688008846002B4BD18A42154667D9B2FA82F2C6
:100698004AB1C2F1200701FA02F320FA07F79540A0
:1006A80047EA030894404FEA154E230CB8FBFEF7BF
:1006B8001FFA85FC0EFB178843EA084307FB0CF179
:1006C800994209D9EB1807F1FF3080F01B81994254
:1006D80040F21881023F2B445B1AA4B2B3FBFEF030
:1006E8000EFB103344EA034400FB0CFCA44509D973
:1006F8002C1900F1FF3380F00781A44540F20481F2
:1007080002382C4440EA0740A4EB0C0400271EB131
:10071800D4400023C6E900433946BDE8F0878B4240
:1007280009D9002E00F0EB800027C6E90001384601
:100738003946BDE8F087B3FA83F7002F47D18B42DB
:1007480002D3824200F2FA80841A61EB030301208B
:100758009846002EE0D0C6E90048DDE702B9FFDE82
:10076800B2FA82F2002A40F08F80491B4FEA154EF8
:100778001FFA85F80127B1FBFEFC230C0EFB1C11A8
:1007880043EA014308FB0CF1994207D9EB180CF135
:10079800FF3002D2994200F2CD808446591AA3B2A2
:1007A800B1FBFEF00EFB101443EA044408FB00F80A
:1007B800A04507D92C1900F1FF3302D2A04500F259
:1007C800B6801846A4EB080440EA0C409FE7C7F13E
:1007D800200CBB4022FA0CFE4EEA030E01FA07F485
:1007E80020FA0CF521FA0CF34FEA1E482543B3FB17
:1007F800F8F92C0C08FB19331FFA8EFA44EA034364
:1008080009FB0AF49C4202FA07F200FA07F10BD935
:100818001EEB030309F1FF3080F087809C4240F211
:100828008480A9F1020973441B1BADB2B3FBF8F035
:1008380008FB103345EA034400FB0AFAA24508D92D
:100848001EEB040400F1FF336BD2A24569D90238CC
:10085800744440EA0940A0FB0289A4EB0A044C4511
:10086800C2464B4654D351D0002E69D0B1EB0A058D
:1008780064EB030404FA0CFCFD40FC404CEA05055B
:10088800C6E90054002747E7C2F1200320FA03F71E
:10089800954001FA02F021FA03F34FEA154E384366
:1008A800010CB3FBFEF71FFA85F80EFB173341EA7C
:1008B800034107FB08F38B4204FA02F407D96918CD
:1008C80007F1FF3C2FD28B422DD9023F2944CB1A86
:1008D80081B2B3FBFEF00EFB103341EA034100FB8B
:1008E80008F38B4207D9691800F1FF3C17D28B42F5
:1008F80015D902382944C91A40EA07473BE7374661
:10090800304609E70746E7E61846FBE64145ABD21D
:10091800B8EB020A69EB0E0201381346A4E76046F9
:10092800E9E7184695E76746D1E781467CE702384C
:100938002C4447E7ACF1020C2B442FE7384608E774
:100948003746E9E6704700BF10B504460E4B1878E5
:100958004FF47A73B3FBF0F30C4A1068B0FBF3F072
:1009680000F0A8F868B90F2C01D901200AE000228C
:1009780021464FF0FF3000F05DF8034B5C6000202B
:1009880000E0012010BD00BF00000020340000205E
:1009980008B50B4B1A6842F400721A601A6842F4E0
:1009A80080621A601A6842F480721A60032000F0AC
:1009B8002FF80020FFF7C8FF01F03AF9002008BD22
:1009C800003C0240034A1168034B1B780B44136038
:1009D800704700BFEC01002000000020014B1868A0
:1009E800704700BFEC01002038B50446FFF7F6FF5A
:1009F8000546B4F1FF3F02D0044B1B781C44FFF7B7
:100A0800EDFF401BA042FAD338BD00BF0000002014
:100A1800074AD36823F4E0631B041B0C000200F4AC
:100A2800E060184340F0BF6040F40030D060704789
:100A380000ED00E030B4174BDB68C3F30223C3F1C9
:100A48000704042C28BF04241D1D062D18D9033BB8
:100A58004FF0FF3505FA04F421EA0401994005FA3C
:100A680003F322EA0303194300280BDB0901C9B287
:100A780000F1604000F5614080F8001330BC704719
:100A88000023E5E700F00F000901C9B2024B195431
:100A9800F4E700BF00ED00E014ED00E000F01F02F5
:100AA800400901239340024A42F82030704700BFB2
:100AB80000E100E00138B0F1807F0AD2064B5860AF
:100AC800064AF02182F823100020986007221A6055
:100AD80070470120704700BF10E000E000ED00E023
:100AE80030B405682C6824F480242C6004686360A2
:100AF8008368402B05D0036899600368DA6030BCCE
:100B0800704703689A600368D960F8E70268D3B24F
:100B1800103B0B49A1FB03131B090A49C95CC165BA
:100B2800032B06D822F47F7222F003028265806DBF
:100B3800704722F47F7222F0030204328265F6E7DE
:100B4800ABAAAAAAC0490008836A826992B9012B94
:100B58000AD01BB1022B01D000207047C36A13F0E2
:100B6800807F2CD100207047C36AB3F1C07F28D0A2
:100B780000207047B2F5005F05D0022B29D9032B5E
:100B880015D000207047032B03D8DFE803F01C04BE
:100B98001C0A00207047C36A13F0807F15D100201B
:100BA8007047C36AB3F1C07F11D000207047C36A91
:100BB80013F0807F01D0012070470020704701208A
:100BC80070470120704701207047012070470120BD
:100BD800704701207047000070B50446FFF7FEFE1D
:100BE800002C5BD00546002384F83430022384F8B7
:100BF80035302268136823F00103136023681A68EC
:100C080012F0010F0AD0FFF7E9FE401B0528F5D9BD
:100C180020236365032084F8350070BD1A682048D6
:100C280010406168A2680A43E1680A4321690A43DF
:100C380061690A43A1690A43E1690A43216A0A43CF
:100C48000243616A04291ED01A602668756925F076
:100C58000705636A1D43042B07D1A36A1D43E36A92
:100C68001BB12046FFF770FF90B975612046FFF76A
:100C78004DFFE26D3F2393408360002060650123B0
:100C880084F83530C9E7E16A206B01430A43DBE7A2
:100C980040236365012084F83500BEE70120BCE7E6
:100CA8003F8010F038B5856D90F83440012C31D074
:100CB800012480F8344090F83540E4B2012C04D087
:100CC800002380F83430022038BD0446022084F81E
:100CD8003500002060652046FFF702FFE26D3F23E4
:100CE8009340AB602268136843F0160313602268D0
:100CF800536943F080035361236C23B1226813685E
:100D080043F0080313602268136843F0010313607B
:100D18000020D9E70220D7E770B50446866DFFF7B3
:100D28005DFE94F83530DBB2022B06D08023636574
:100D3800002384F83430012070BD0546226813680A
:100D480023F0160313602268536923F0800353616C
:100D5800236CE3B12268136823F008031360226848
:100D6800136823F00103136023681B6813F0010F55
:100D780011D0FFF733FE401B0528F5D92023636502
:100D8800002384F83430032084F83500D4E7A36CBA
:100D9800002BDFD1E3E7E26D3F239340B3600020EF
:100DA80084F83400012384F83530C5E7F0B583B002
:100DB800044600230193724B1D68724BA3FB053553
:100DC800AD0A876D3E68C26D08239340334210D048
:100DD80003681A6812F0040F0BD01A6822F0040294
:100DE8001A60C26D08239340BB60436D43F0010352
:100DF8004365E26D01239340334209D0226852696A
:100E080012F0800F04D0BB60636D43F0020363658A
:100E1800E26D04239340334209D02268126812F02D
:100E2800020F04D0BB60636D43F004036365E26D99
:100E380010239340334224D02268126812F0080F1E
:100E48001FD0BB6023681A6812F4802F0DD01B686E
:100E580013F4002F04D1236C9BB12046984710E06F
:100E6800A36C73B1204698470BE01A6812F4807F90
:100E780003D11A6822F008021A60236C0BB12046CD
:100E88009847E26D20239340334255D02268126878
:100E980012F0100F50D0BB6094F83530DBB2052B40
:100EA8000ED023681A6812F4802F33D01B6813F40D
:100EB800002F2AD1636C002B3ED0204698473BE098
:100EC8002268136823F0160313602268536923F01D
:100ED80080035361236CA3B12268136823F00803CD
:100EE8001360E26D3F239340BB60002384F83430E5
:100EF800012384F83530236D002B3FD020469847D6
:100F08003CE0A36C002BE7D1EBE7E36BA3B12046F1
:100F1800984711E01A6812F4807F09D11A6822F004
:100F280010021A60002384F83430012384F8353025
:100F3800E36B0BB120469847636DFBB1636D13F00B
:100F4800010F17D0052384F835302268136823F081
:100F580001031360019B01330193AB4204D823685A
:100F68001B6813F0010FF5D1002384F834300123F6
:100F780084F83530E36C0BB12046984703B0F0BDD8
:100F880034000020B5814E1B90F8350070470000F2
:100F980000230F2B00F2D780F0B482B039E007228B
:100FA80000E00022B2403A430234674E46F824205B
:100FB800664A1468EA4302EA04064F6817F4803F59
:100FC80001D045EA0406614C2660646802EA04061A
:100FD8004F6817F4003F01D045EA04065B4C666091
:100FE800A46802EA04064F6817F4801F01D045EA96
:100FF8000406564CA660E46822404E6816F4001FAA
:1010080001D045EA0402514CE26001330F2B00F293
:10101800978001229A400C6804EA0205AA42F4D19A
:101028004C68022C01D0122C10D1DE08083650F87A
:1010380026C003F00704A7000F24BC402CEA040CC8
:101048000C69BC4044EA0C0440F8264004685F0080
:101058000326BE40F64306EA040C4C6804F0030479
:10106800BC4044EA0C0404604C6804F1FF3CBCF149
:10107800010F03D9112C01D0122C10D1846806EA73
:10108800040CCC68BC4044EA0C048460446824EA3C
:1010980002024C68C4F300149C4014434460C268C4
:1010A80016408A68BA403243C2604A6812F0805FCC
:1010B800ABD000220192264A546C44F48044546414
:1010C800526C02F480420192019A9C08A61C1E4AA6
:1010D80052F8267003F0030296000F22B24027EA66
:1010E80002071C4A90423FF45CAF02F580629042CE
:1010F8001AD002F58062904218D002F580629042C0
:1011080016D002F58062904214D002F580629042B7
:1011180012D002F58062904210D002F580629042AF
:101128003FF43DAF08223DE701223BE7022239E7C1
:10113800032237E7042235E7052233E7062231E7A1
:1011480002B0F0BC7047704700380140003C0140D5
:101158000038024000000240002800F0BB8170B552
:1011680082B00446036813F0010F3BD0A74B9B687D
:1011780003F00C03042B2CD0A44B9B6803F00C0346
:10118800082B21D06368B3F5803F4FD0B3F5A02F6B
:1011980052D09E4B1A6822F480321A601A6822F4E0
:1011A80080221A606368002B50D0FFF717FC0546B1
:1011B800964B1B6813F4003F14D1FFF70FFC401B3C
:1011C8006428F5D903208AE1904B5B6813F4800FFB
:1011D800D8D08E4B1B6813F4003F03D06368002BF4
:1011E80000F07A81236813F0020F55D0874B9B6873
:1011F80013F00C0F3ED0854B9B6803F00C03082BB3
:1012080033D0E368002B68D0814B01221A60FFF7C6
:10121800E5FB05467D4B1B6813F0020F54D1FFF721
:10122800DDFB401B0228F5D9032058E1774A1368F3
:1012380043F480331360B5E7744B1A6842F4802294
:101248001A601A6842F480321A60ABE7FFF7C6FBEF
:1012580005466E4B1B6813F4003FC3D0FFF7BEFB77
:10126800401B6428F5D9032039E1684B5B6813F407
:10127800800FC6D1654B1B6813F0020F04D0E368DA
:10128800012B01D001202AE1604A136823F0F803FA
:10129800216943EAC1031360236813F0080F40D0A3
:1012A800636963B35B4B01221A60FFF797FB05463E
:1012B800564B5B6F13F0020F33D1FFF78FFB401BC8
:1012C8000228F5D903200AE1504A136823F0F803ED
:1012D800216943EAC1031360DEE74D4B00221A601F
:1012E800FFF77CFB0546494B1B6813F0020FD3D070
:1012F800FFF774FB401B0228F5D90320EFE0454BAC
:1013080000221A60FFF76AFB0546404B5B6F13F03B
:10131800020F06D0FFF762FB401B0228F5D9032015
:10132800DDE0236813F0040F79D0384B1B6C13F001
:10133800805F33D100230193344B1A6C42F0805202
:101348001A641B6C03F080530193019B0125324BF7
:101358001B6813F4807F23D0A368012B34D0052B9E
:1013680038D02A4B1A6F22F001021A671A6F22F03E
:1013780004021A67A368002B36D0FFF72FFB064636
:10138800224B1B6F13F0020F48D1FFF727FB801B7E
:1013980041F288339842F3D90320A0E00025D6E72C
:1013A8001D4A136843F480731360FFF717FB064662
:1013B800194B1B6813F4807FCED1FFF70FFB801BFE
:1013C8000228F5D903208AE0104A136F43F001037D
:1013D8001367CFE70D4B1A6F42F004021A671A6FB2
:1013E80042F001021A67C5E7FFF7F8FA0646074B0D
:1013F8001B6F13F0020F11D0FFF7F0FA801B41F2B8
:1014080088339842F3D9032069E000BF00380240CE
:1014180000004742800E474200700040E5B9A369CA
:10142800002B5BD0304A926802F00C02082A58D090
:10143800022B17D02D4B00221A60FFF7CFFA044673
:10144800294B1B6813F0007F42D0FFF7C7FA001B37
:101458000228F5D9032042E0234A136C23F0805375
:101468001364DCE7214B00221A60FFF7B7FA054640
:101478001D4B1B6813F0007F06D0FFF7AFFA401B27
:101488000228F5D903202AE0E369226A1343626A35
:1014980043EA8213A26A5208013A43EA0243E26A23
:1014A80043EA0263104A5360104B01221A60FFF7A7
:1014B80095FA04460C4B1B6813F0007F06D1FFF722
:1014C8008DFA001B0228F5D9032008E0002006E069
:1014D800002004E001207047012000E0002002B055
:1014E80070BD0120FBE700BF0038024060004742A2
:1014F800324B9B6803F00C03042B5CD0082B01D003
:101508002F4870472DE9F04B2C4B5A6802F03F02E8
:101518005B6813F4800F2BD0284B5B68C3F38813E8
:101528001E4600275C010025E41A65EB0705A901A2
:1015380041EA9461A001001B61EB0501CB0043EA7D
:101548005073C400A01943EB07014B0243EAD05380
:101558004402204619460023FFF776F8174B5B68CC
:10156800C3F3014301335B00B0FBF3F0BDE8F08B3C
:10157800124B5B68C3F388131E4600275C010025E5
:10158800E41A65EB0705A90141EA9461A001001B73
:1015980061EB0501CB0043EA5073C400A01943EB8B
:1015A80007018B0243EA9053840220461946002320
:1015B800FFF74AF8D2E70348704700BF00380240F7
:1015C8000024F40000127A00002800F09D8070B515
:1015D80004464F4B1B6803F00F038B4209D2CBB272
:1015E8004B4A1370136803F00F038B4201D001209C
:1015F80070BD236813F0020F17D013F0040F04D046
:10160800444A936843F4E0539360236813F0080F47
:1016180004D0404A936843F4604393603D4A93681A
:1016280023F0F003A068034393600D46236813F08A
:10163800010F32D06368012B21D09A1E012A25D9C7
:10164800344A126812F0020F60D032498A6822F0D8
:10165800030213438B60FFF7C1F906462D4B9B68C5
:1016680003F00C036268B3EB820F16D0FFF7B6F9EC
:10167800801B41F288339842F0D90320B8E7254A05
:10168800126812F4003FE0D10120B1E7214A126844
:1016980012F0007FD9D10120AAE71D4B1B6803F087
:1016A8000F03AB4209D9EAB2194B1A701B6803F051
:1016B8000F03AB4201D001209AE7236813F0040F0F
:1016C80006D0144A936823F4E053E1680B4393600F
:1016D800236813F0080F07D00E4A936823F4604379
:1016E800216943EAC1039360FFF702FF094B9B6836
:1016F800C3F30313084AD35CD840084B1860002092
:10170800FFF722F9002073E70120704701206FE7F7
:10171800003C024000380240C8490008340000205C
:10172800F8B505460F4616461C463BE02CB1FFF7B8
:1017380055F9069BC01AA04234D32A68536823F08F
:10174800E00353606B68B3F5827F0BD0AB6AB3F5E7
:10175800005F14D0012385F85130002385F85030FC
:10176800032027E0AB68B3F5004F02D0B3F5806FD4
:10177800ECD12A68136823F040031360E6E72A686F
:10178800136823F400531B041B0C13602A681368A6
:1017980043F400531360DDE70123B34209D0B4F1E9
:1017A800FF3FC3D12B689B6837EA0303F4D00023BB
:1017B800F3E70020F8BD10B582B0044600920B464E
:1017C80000228021FFF7ACFF034610B9184602B08B
:1017D80010BD636D43F0200363650323F6E700281B
:1017E8003BD010B504460023836290F85130002B9B
:1017F8002ED0022384F851302268136823F0400366
:1018080013606368A2681343E268134322691343B1
:1018180062691343A26902F400721343E269134335
:10182800226A1343A16A22680B431360638B03F097
:101838000403616A22680B4353602268D36923F466
:101848000063D36100206065012384F8513010BD26
:1018580080F8503000F008FACBE70120704700000C
:1018680090F85030012B55D010B50446012380F86C
:10187800503090F85130DBB2012B04D00220002305
:1018880084F8503010BD002940D0002A40D00323EE
:1018980080F851300023436501638286C2868363E2
:1018A800436403648387C3878368B3F5004F27D0F5
:1018B800A36C194A1A64A36C184ADA63A36C184A11
:1018C800DA64A36C00221A652268E38E0C32216B5D
:1018D800A06CFFF7E7F923681A6812F0400F03D1EC
:1018E8001A6842F040021A602268536843F02003E5
:1018F80053602268536843F0020353600020BEE738
:101908000268136843F480431360D1E70120B6E707
:101918000120B4E702207047551900088319000810
:101928006119000810B50446806C08B1FFF7F4F996
:10193800E06C08B1FFF7F0F92268536823F003035D
:101948005360012384F85130002010BD08B5806B26
:1019580000F092FA08BD704708B5806B02685368BA
:1019680023F003035360436D43F0100343650123E1
:1019780080F85130FFF7EFFF08BD30B583B005465A
:10198800846BFFF72BF82B681B6813F4807F1ED13C
:101998002268536823F002035360024664212046FC
:1019A800FFF709FF18B1636D43F020036365A3686F
:1019B80033B901932368DA6801929B680193019B0C
:1019C8000023E386012384F85130636D23B9204650
:1019D80000F0C8FA03B030BD2046FFF7BCFFF9E7B6
:1019E80082B0002100910B4B1A6B42F080021A63FF
:1019F8001A6B02F080020092009A01911A6B42F071
:101A080001021A631B6B03F001030193019B02B0EF
:101A1800704700BF0038024000B583B00021019133
:101A2800094B1A6B42F480021A631B6B03F48003A0
:101A38000193019B0A463B20FEF7FCFF3B20FFF782
:101A48002DF803B05DF804FB0038024008B50C48D7
:101A58000C4B03604FF48273436000238360C360C0
:101A6800036143614FF4007282611022C261036214
:101A7800436283620A23C362FFF7B1FE08BD00BF59
:101A8800F00100200030014030B595B0302200212F
:101A980008A802F073FE00240394049405940694A5
:101AA800079401941B4B1A6C42F080521A641B6C09
:101AB80003F080530193019B0294174B1A6842F478
:101AC80080421A601B6803F480430293029B01233F
:101AD80008934FF48033099302250E954FF4800341
:101AE8000F9304231093642211921295139308A85C
:101AF800FFF732FB0F230393049505944FF4A0538B
:101B080006934FF480530793032103A8FFF75CFD66
:101B180015B030BD003802400070004008B5FEF72F
:101B280037FFFFF7B1FFFFF75BFFFFF775FFFFF721
:101B38008DFF254800F02CF9052000F0B9FE00F0D3
:101B480048F840233E220021084601F035F80023DA
:101B58001A461946012001F02FF800231A461946A3
:101B6800022001F029F8194C3A222188002000F0BF
:101B78004BF83A222188012000F046F83A222188C1
:101B8800022000F041F83A222188032000F03CF8B6
:101B98003A222188042000F037F8002000F0E8FFFE
:101BA800012000F0E5FF022000F0E2FF032000F032
:101BB800DFFF042000F0DCFFC820FEF715FF00F06F
:101BC80057FF00F03BFFFAE7F00100200800002073
:101BD800704708B505220021084601F0ABF90D222F
:101BE8000621012001F0A6F919220E21022001F098
:101BF800A1F921221A21032001F09CF92722222190
:101C0800042001F097F908BD38B50446154601F0DF
:101C18007BF92946204600F06BFF38BD10B5044615
:101C280002F06AFE90FBF4F304FB130010BD000001
:101C380082B0002100910B4B5A6C42F480425A64E6
:101C48005A6C02F480420092009A01911A6C42F098
:101C580080521A641B6C03F080530193019B02B0FD
:101C6800704700BF0038024030B589B000230393A5
:101C780004930593069307930268244B9A4201D074
:101C880009B030BD04460025019503F584335A6C2C
:101C980042F480525A645A6C02F480520192019ABA
:101CA80002951A6B42F001021A631B6B03F00103E1
:101CB8000293029BA0230393022304930323069316
:101CC8000523079303A91248FFF762F91148124B3D
:101CD80003604FF0C063436040238360C5604FF4E6
:101CE80080630361456185614FF48073C3614FF47C
:101CF800403303624562FEF76FFF18B9054BA364D2
:101D08009C63BDE7FFF764FFF8E700BF00300140C0
:101D18000000024048020020586402407047FEE775
:101D2800FEE7FEE7FEE770477047704708B5FEF725
:101D380049FE08BD08B50248FFF738F808BD00BFDE
:101D4800480200200F49D1F8883043F47003C1F8E5
:101D580088300D4B1A6842F001021A600020986022
:101D68001A6822F0847222F480321A60074A5A6094
:101D78001A6822F480221A60D8604FF000638B60E2
:101D8800704700BF00ED00E000380240103000242A
:101D9800014B1860704700BFA802002083B2272BB0
:101DA8000CD810B40C0C064A00EB4000131814545D
:101DB8000A0A5A7099705DF8044B7047704700BF63
:101DC800AC02002030B482B0019183B2272B09D82D
:101DD800064A00EB4000111802AB33F8044D9B781B
:101DE80014528B7002B030BC704700BFAC020020A8
:101DF80030B484B2272C06D8044D00EB40002C18D0
:101E080029546270A37030BC704700BFAC02002038
:101E1800054B00EB40001A18185C53781B0243EA84
:101E28000043907818437047AC0200200048704780
:101E3800AC02002008B50D4A00231380937005E01A
:101E48000A4A1A44002111710133DBB22F2BF7D94A
:101E580030220749074B1868FFF702FD054B1B683E
:101E6800986CFFF791F80128F8D108BDA40100206B
:101E7800A8010020A8020020374B1968814200D031
:101E88007047364B9B786BB110B5344B1A88282AAB
:101E98000ED80721002317E0304A1A440021117197
:101EA8000133DBB2172BF7D92C4B01229A707047FC
:101EB8000846FFF737FD4DE028481844F824047118
:101EC8000133DBB2013949B200290DDB02EB4204D0
:101ED800234820444078084110F0010FECD11F48F6
:101EE8001844C0240471EBE7072107E01B48184495
:101EF800F82404710133DBB2013949B200290CDB43
:101F080002EB4200164C205C084110F0010FEDD1A5
:101F180012481844C0240471ECE7072107E00F4871
:101F28001844F82404710133DBB2013949B200299D
:101F38000DDB02EB42040A4820448078084110F087
:101F4800010FECD105481844C0240471EBE70132B5
:101F5800024B1A8010BD00BFA8020020A401002077
:101F6800AC0200202F4B1B68834200D0704710B58D
:101F78002D4A1288282A02D8072118230BE0184670
:101F8800FFF7D0FC4DE028481844F82404710133C9
:101F9800DBB2013949B200290DDB02EB42042348C8
:101FA80020444078084110F0010FECD11E48184435
:101FB800C0240471EBE7072107E01B481844F82404
:101FC80004710133DBB2013949B200290CDB02EBA1
:101FD8004200164C205C084110F0010FEDD1124868
:101FE8001844C0240471ECE7072107E00E481844A0
:101FF800F82404710133DBB2013949B200290DDB41
:1020080002EB4204094820448078084110F0010F8F
:10201800ECD105481844C0240471EBE70132024BA7
:102028001A8010BDA8020020A4010020AC020020E4
:10203800014B185C704700BFE049000810B5244BFD
:102048001B78C3EBC303D900224B1A680A441169F1
:10205800D38894881B1B01335B00033B994208D942
:102068000023136105E0D96920B2FFF797FE013418
:10207800A4B2174B1B78C3EBC303DA00154B1B68DC
:102088001344D888A042EED21A699988441A121BC0
:10209800002AB8BF52429C7A14F0010F12D1881856
:1020A800996900B2FFF77AFE094B1B78C3EBC303AB
:1020B800DA00084B186883181969013119619B8A7D
:1020C800835010BD801A996900B2FFF767FEEBE7ED
:1020D80038030020D801002070B5264B1B78C3EBCD
:1020E800C303D900244B1A680A441169D388948819
:1020F8001B1B01335B00033B994208D90023136182
:1021080005E0D96920B2FFF749FE0134A4B2194BA2
:102118001B78C3EBC303DA00174B1B681344DA8838
:10212800A242EED81C699888121AA41A002CB8BFCB
:102138006442A4B22044996900B2FFF72FFE0E4D05
:102148000C4E3378C3EBC303DA002B681344D888EA
:10215800001B996900B2FFF721FE3378C3EBC30374
:10216800DA00286883181969013119619B8A83503C
:1021780070BD00BF38030020D801002070B5174C8F
:10218800174D2A78C2EBC202D10023680B44988805
:10219800DA8D1044D96900B2FFF700FE02F0ACFBFB
:1021A8002A78C2EBC202D10023680B44D9889E88E2
:1021B800891B013190FBF1F201FB120080B2D88536
:1021C8003044996900B2FFF7E9FD2B78C3EBC303EC
:1021D800DA0023689918898A995070BDD8010020BF
:1021E8003803002070B5324B1B78C3EBC303DA0009
:1021F800304B1B681344DA6892B99C8805E09969EA
:1022080020B2FFF7CBFD0134A4B2294B1B78C3EBF6
:10221800C303DA00274B1B681344DA88A242EED2C4
:10222800234B1A78C2EBC202D100224B1B680B4425
:102238009888DA8D1044996900B2FFF7AFFD02F073
:102248005BFB1D4A82FB0032C317C3EB620303EB3F
:10225800830398420AD0164B1B78C3EBC303DA00FA
:10226800144B1B689918898A995070BD02F044FB79
:10227800104C0F4D2B78C3EBC303DA0021681144CF
:10228800CA888E88921B013290FBF2F302FB13007E
:1022980080B2C88530446FF07F4100B2FFF77EFD01
:1022A8002B78C3EBC303DA00236814219950D2E7D3
:1022B80038030020D80100206766666638B5354BBC
:1022C8001B78C3EBC303DA00334B1B6813449C88A9
:1022D80005E0996920B2FFF761FD0134A4B22D4BE6
:1022E8001B78C3EBC303DA002B4B1B681344DA8853
:1022F800A242EED202F000FB284A82FB0032C3174A
:10230800C3EB620303EB8303C31A012B0ADD214BE2
:102318001B78C3EBC303DA001F4B1B689918898A23
:10232800995038BD00241CE0012398422EDA02F0AF
:10233800E3FA184B1A78C2EBC202D300164A1268A5
:102348001A44D38892889B1A013390FBF3F203FB5B
:10235800120028446FF07F4100B2FFF71FFD0134DF
:10236800A4B220460B4B1B78C3EBC303D9000A4B1E
:102378001A680A44D38895885B1B0133052BD3DD83
:10238800074981FB03C1A1EBE373CEE71423136074
:10239800BDE700BF38030020D801002067666666E5
:1023A8005655555570B5314B1B78C3EBC303DA004E
:1023B8002F4B1B6813449C8805E0002120B2FFF7CF
:1023C800EDFC0134A4B2294B1B78C3EBC303DA003C
:1023D800274B1B681344DA88A242EED29A8A254812
:1023E800A0FB0210C00800EB80004100511A89B21E
:1023F800C1F1090101EB810101EB8101880080B283
:10240800C83080B21C4CA4FB022464090134640067
:102418001A69A24216D212F0010F25D19D8805E053
:10242800996928B2FFF7BAFC0135ADB20F4B1B789A
:10243800C3EBC303DA000E4B1B681344DA88AA42C5
:10244800EED21420094B1B78C3EBC303DA00084B08
:102458001D68AE18336901330134B3FBF4F104FB92
:1024680011343461A85070BD3220EBE738030020E6
:10247800D8010020CDCCCCCC1F85EB5170B53E4B9C
:102488001B78C3EBC303DA003C4B1B681344DA68C0
:102498003B4DA5FB02156D0805EBC505551BEDB2B7
:1024A8009C8805E0996920B2FFF778FC0134A4B252
:1024B800314B1B78C3EBC303DA00304B1B68134462
:1024C800D888A042EED2998A072D3FD815F0010F7F
:1024D8004FD11A6996B201329D88411B0131B2FB76
:1024E800F1F401FB142294B29B7A13F0010F16D079
:1024F800801B6FF07F4100B2FFF750FC1E4B1B782A
:10250800C3EBC303DA001D4B1B681344D888001BB8
:102518006FF07F4100B2FFF741FC142120E0A819B9
:102528006FF07F4100B2FFF739FC134B1B78C3EB08
:10253800C303DA00114B1B681344988820446FF0DA
:102548007F4100B2FFF72AFC142109E01A69013221
:102558009C88001B0130B2FBF0F400FB14201861CA
:10256800054B1B78C3EBC303DA00044B1B68995077
:1025780070BD1E21F4E700BF38030020D8010020F9
:10258800398EE33870B5704D704E3278C2EBC202A6
:10259800D1002B680B441C8A98882044996900B2A2
:1025A800FFF7FCFB3378C3EBC303DA002B68134453
:1025B8009888204480B21430996900B2FFF7EEFB86
:1025C8003378C3EBC303DA002B681344DB8DA342D3
:1025D80032D05D4D5D4E3378C3EBC303DA002B6810
:1025E800134498882044002100B2FFF7D7FB3378C2
:1025F800C3EBC303D9002A680A4491880819D38811
:102608005B1A013303EBD3735B1013FA80F00021DC
:1026180000B2FFF7C3FB3278C2EBC202D1002B68CD
:102628000B44D98D1A69914265D8914267D2013A13
:102638001A61013CA4B262E002F05EF9444B83FBEC
:102648000023A3EBE07303EB43035A0090422AD024
:1026580002F052F93C4D3D4E3178C1EBC101CB003F
:102668002A681A44D38891885B1A013303EBD37321
:102678005B1090FBF3F103FB1103D38502F03CF9E7
:10268800344A82FB0032C317C3EBE2134FF4FA62F9
:1026980002FB13033278C2EBC202D1002A6803F5A9
:1026A8007A73535095E73378C3EBC303DA002B688A
:1026B800134498882044002100B2FFF76FFB337859
:1026C800C3EBC303D9002A680A4491880819D38840
:1026D8005B1A013303EBD3735B1013FA80F000210C
:1026E80000B2FFF75BFB3378C3EBC303DA002B6858
:1026F800C8219950ACE701321A610134A4B2988814
:102708002044996900B2FFF749FB0F4D0F4E32780C
:10271800C2EBC202D1002B680B449A881444D888B3
:10272800801A013000EBD070401010FA84F09969DB
:1027380000B2FFF733FB3378C3EBC303DA002B682F
:102748009918898A995070BDD80100203803002053
:10275800ABAAAA2AD34D621010B50F4B1B78C3EB56
:10276800C303DA000D4B1B6813449C8805E0596AC3
:1027780020B2FFF727FB0134A4B2074B1B78C3EB49
:10278800C303DA00054B1B681344DA88A242EED271
:102798009A8A1A6010BD00BF38030020D8010020B3
:1027A800F8B5414B1B78C3EBC303DA003F4B1B68FA
:1027B80013449D692F0C2E0A00240DE0FF3138E0E8
:1027C800FF323CE0C3F30723D2B2C9B20FFA8CF050
:1027D800FFF70EFB0134A4B2334B1A78C2EBC202E6
:1027E800D100324B1B680B44DA889988521A01329F
:1027F800944252DA1B69234403EB4303580000F068
:10280800FE00FFF715FC284B1A78C2EBC202D10074
:10281800264B1B680B449A7A12F0010F17D0B3F8B5
:1028280004C0A4441FFA8CFCF9B200FB01F1002992
:10283800C4DB0912F2B200FB02F2002AC0DB12125A
:10284800EBB200FB03F3002BBCDAFF33BAE7B3F8B3
:1028580006C0ACEB040C1FFA8CFCF9B200FB01F1CA
:10286800002914DB0912F2B200FB02F2002A10DB85
:102878001212EBB200FB03F3002B0CDBC3F30723AC
:10288800D2B2C9B20FFA8CF0FFF7B2FAA2E7FF3161
:10289800E8E7FF32ECE7FF33F0E71A690132D2B21A
:1028A8001A619A8A1A60F8BD38030020D8010020FE
:1028B800431E9BB2122B01D9012070472DE9F0412C
:1028C8000546382101F01EFF0646002800F0B080BA
:1028D800584BD3F800C0BCF1000F02D000200746C7
:1028E8004AE0554B1D8000231F4601E001339BB28F
:1028F800AB4280F09580C3EBC302D4003219962115
:102908009182117A6FF3000111729780292191FB4E
:10291800F5F139448FB2781E80B2D0802728E5D9E6
:1029280064442722E280E1E7991D5CF8214042F8DF
:10293800214003EB43015418614431F824EF8978AE
:10294800A4F824E084F826100133DBB2022BEBD97B
:102958009CF82D3082F82D30BCF82E30D3859CF8A9
:10296800301092F8303061F3000382F83030DCF830
:1029780034305363013080B201462F4B1B88AB4281
:1029880038D21A46914237DAC0EBC002D300294A3E
:102998001168F218C958F1509780292191FBF5F177
:1029A80039448FB2791E89B2D180272904D92149A7
:1029B800096819442724CC801E49096801EB030CD7
:1029C8009CF80810137A61F3000313729CF809301D
:1029D80053729CF80A10937A61F300039372DCF83F
:1029E8000C30D360DCF810301361BCF814309382DB
:1029F8000023ABE72A46C5E7AB420FD2C5EBC502B9
:102A0800D300383B334496229A82002159721A7AAD
:102A180061F300021A729F802722DA80064B1D801C
:102A2800044C206801F0A2FE26600020BDE8F08179
:102A38000120FBE7D801002024030020002301E047
:102A480001339BB2084A12889A420BD9C3EBC301DF
:102A5800CA000649096888580028F1D08858013802
:102A68008850EDE7704700BF24030020D8010020FC
:102A780038B51A4B1B7823BB194B1B7833B300248A
:102A880001E00134A4B2174B1B88A3421BD9C4EB45
:102A9800C403DD00144B1B685A195B59002BF0D195
:102AA800137A13F0010FECD0104B1C70536B98473E
:102AB8000D4A13681D44EB680133EB600123137161
:102AC800DFE70024DFE7084B1B7903B938BDFFF7C0
:102AD800B1F9054B00221A71F8E700BF2603002060
:102AE8004503002024030020D801002038030020DB
:102AF8001A4B1B8883422CD9C0EBC000C300184A6C
:102B0800106818440023C36003614172154A52F8E3
:102B180021204263022B1ED810B4134A52F8231006
:102B28009A1D40F82210114C03EB4302A118A45C33
:102B3800024482F824404C7882F82540897882F84B
:102B480026100133DBB2022BE7D900205DF8044BD5
:102B58007047012070470020704700BF2403002001
:102B6800D801002038000020280300203C03002062
:102B78000E4B1B88834216D910B4C0EBC000C200AC
:102B88000B4B19688C180020E060206188501B6886
:102B980013441A7A42F001021A72064B01221A7083
:102BA8005DF8044B70470120704700BF24030020E4
:102BB800D80100202603002030B4140244EA01445E
:102BC8001C43064D45F82040054D00EB40002C18ED
:102BD80029546270A37030BC704700BF28030020DE
:102BE8003C030020F8B5884246D284B295B2AC4284
:102BF80028BF2C46884241D986B2B54238BF3546EF
:102C0800079E35702C1BA4B2002C39D0002D3CD067
:102C1800642606FB04F696FBF5F6C6EB0626284F57
:102C280087FB06C7F617C6EB6716069F3E7086B287
:102C3800AE422FD08EB2AE4234D0401A642101FB8E
:102C480000F090FBF4F404F5B46424B21D46C4EB20
:102C58000414A20012B21A4B83FB0213D417C4EB5C
:102C6800631424B22046FDF7FDFB00220023FDF784
:102C7800C3FC08BB2C8007E08CB2B7E78EB2BCE778
:102C8800002206990A701A80F8BD002206990A7077
:102C98001A80F9E7881A642101FB00F191FBF4F42A
:102CA80024B2D3E7101A642202FB00F292FBF4F478
:102CB80004F5347424B2C9E704F5B47424B2D9E72E
:102CC8001F85EB51F0B5059D00293CD08C46B0F529
:102CD800B47F01D340F267102F4EA6FB0016760989
:102CE800B7B2C6EB0616B100411A89B2CCF1FF069D
:102CF80006FB02F6002E2BDB361201FB0CFE2748E2
:102D080080FB0E4070440012C0F1FF0000FB02F08F
:102D180000281FDB0012C1F5B47101FB0CF11F4C38
:102D280084FB014C8C44C917A1EB2C21FF3101FB1A
:102D380002F1002910DB0912042F28D8DFE807F078
:102D48000E13181D22001A702A70069B1A70F0BD07
:102D5800FF36D1E7FF30DDE7FF31ECE71A70297065
:102D6800069B1E70F3E718702A70069B1E70EEE72C
:102D78001E702A70069B1970E9E71E702870069B62
:102D88001A70E4E719702E70069B1A70DFE71A7044
:102D98002E70069B1870DAE789888888B7600BB6AA
:102DA800114B1B8883421DD970B50D460646002479
:102DB8000AE02044EBB2C5F30722C5F3074100B28D
:102DC800FFF716F80134A4B2C6EBC602D300074ACF
:102DD80012681A44D38890881B1A01339C42E8DB96
:102DE800002070BD0120704724030020D801002076
:102DF8002DE9F843154C2488844224D999469046F5
:102E08000F46064600250DE0C6EBC602D3000B446C
:102E1800988828444B464246394600B2FEF7E8FFF8
:102E28000135ADB20A4B19680A4B1A78C2EBC202D7
:102E3800D3000B44DC889B88E41A0134A542E3DB09
:102E48000020BDE8F8830120FBE700BF2403002031
:102E5800D80100203803002038B5294B1878C0EB7A
:102E6800C002D300274A14681C442369FF2B02D9E7
:102E7800C3F5FF7301330F2B0DD0192B33D9322B28
:102E880033D94B2B33D9642B33D97D2B33D9962B9C
:102E980033D80B2501E040F2CA3594F8241003FB1F
:102EA80001F194F8252003FB02F294F8264003FB75
:102EB80004F3C3F30723C2F30722C1F30721FFF783
:102EC80097FF0F4B1B78C3EBC303DA000D4B186851
:102ED80081180B6902330B61B3F5F97F01D30F2316
:102EE8000B61855038BD2625D7E72425D5E71C2555
:102EF800D3E71425D1E70E25CFE70A25CDE700BF94
:102F080038030020D8010020084B1B8883420BD9C6
:102F1800092900D80A21C0EBC000C200044B1B6875
:102F28001344998200207047012070472403002031
:102F3800D8010020094B1B8883420CD910B4C0EB80
:102F4800C000C400064B1B6823449980DA80002027
:102F58005DF8044B70470120704700BF2403002030
:102F6800D8010020C043C0B254280CD9A92812D9CE
:102F78005630C3B203EB4302A3EB8300FF300002D9
:102F880040EA02407047A0EB8003FF3300EB4000AB
:102F980040EA034070475538C0B200EB4003A0EB4D
:102FA8008000FF3040EA03207047000070B52C4BCA
:102FB8001B78C3EBC303DA002A4B1B681344DA6897
:102FC800E2B9DC880FE001F097FC4342C0B2DBB203
:102FD80058BF5842C0B2FFF7C5FF014620B2FEF7FE
:102FE800DDFE0134A4B21E4B1B78C3EBC303DA0029
:102FF8001C4B1B681344DB88A342E4D2194C184EBF
:103008003378C3EBC303DA00236813449D8801F0C7
:1030180073FC3278C2EBC202D30022681A44D38808
:1030280092889B1A013390FBF3F203FB12031D44B1
:10303800ADB201F061FC4342C0B2DBB258BF5842A6
:10304800C0B2FFF78FFF014628B2FEF7A7FE33781C
:10305800C3EBC303DA0023689918898A995070BDB5
:1030680038030020D801002010B5144B1B78C3EB9F
:10307800C303DA00124B1B6813449C880FE001F06D
:103088003BFC4342C0B2DBB258BF5842C0B2FFF764
:1030980069FF014620B2FEF781FE0134A4B2074B56
:1030A8001B78C3EBC303DA00054B1B681344DA88AB
:1030B800A242E4D29A8A1A6010BD00BF38030020E9
:1030C800D801002038B5134B1B78C3EBC303DA00D3
:1030D800114B1C681444207CFFF744FF0546A48864
:1030E80005E0294620B2FEF759FE0134A4B2094B87
:1030F8001B78C3EBC303DA00074B1B681344DA8859
:10310800A242EED21A690132D2B21A619A8A1A60C0
:1031180038BD00BF38030020D801002038B500248E
:103128000EE0220292FBF0F01B691844C0B2FFF7D0
:1031380019FF2544014628B2FEF730FE0134A4B237
:103148000A4B1A78C2EBC202D100094B1B680B4428
:10315800D8889D88401B01308442E2DB1A6901321D
:10316800D2B21A619A8A1A6038BD00BF38030020AB
:10317800D8010020F8B5374B1C7814F0010F2ED079
:103188000026C4EBC402D300334A12681A441569F6
:103198002802D38892889B1A013390FBF3F02844C5
:1031A800C0B2FFF7DFFE07462C4B53F824309D4290
:1031B80017D0284B1A78C2EBC203D900264B1B68DC
:1031C8000B441869254951F8222090421AD296B129
:1031D800DB88181A394600B2FEF7E0FD1DE001262B
:1031E800CFE71F4B53F824000130FEF717FD1B4BA8
:1031F80043F82400DDE79B881844394600B2FEF7FF
:10320800CDFD0AE0DA889B88D11A401A0138DEB968
:10321800101A002100B2FEF7C1FD0E4B1B78C3EB5C
:10322800C303D8000C4B1D682A1811690131D388D3
:1032380094881B1B01335B00B1FBF3F403FB1413ED
:103248001361938A2B50F8BD1844002100B2FEF791
:10325800A5FDE2E738030020D80100200C0000207B
:103268002000002010B504460023184611E001F0A4
:1032780043FB4342C0B2DBB258BF5842C0B2231A24
:10328800002BB8BF5B42DBB2DA43D2B2934228BF0D
:103298001346292BEBD910BD70B5124D124E337859
:1032A800C3EBC303DA002C68144494F82D00FFF72D
:1032B800D9FF84F82D003478C4EBC403DA002B68F6
:1032C800134493F82D00FFF74DFE01462046FFF703
:1032D80067FD3378C3EBC303DA002B689918898A32
:1032E800995070BDD801002038030020F8B5444B30
:1032F8001B78C3EBC303DA00424B1B681344DB683B
:10330800414FA7FB03277F0807EBC707DF1BFFB267
:1033180000250CE0A6882E44B6B294F82D00FFF7DD
:1033280021FE014630B2FEF739FD0135ADB2344B0E
:103338001B78C3EBC303DA00324B1C6814442369BF
:103348009D42E7D3A58A072F3ED89DB20133E28874
:10335800A088121A0132B3FBF2F102FB11339EB2BC
:1033680017F0010F16D128446FF07F4100B2FEF725
:1033780015FD234B1B78C3EBC303DA00214B1B68F5
:1033880013449B8833446FF07F4118B2FEF706FD63
:10339800142524E0284485B294F82D00FFF7E2FDB7
:1033A800014628B2FEF7FAFC154B1B78C3EBC303A2
:1033B800DA00144B1B6813449B883344002118B26D
:1033C800FEF7ECFC1E250AE00133E288A188521AB8
:1033D8000132B3FBF2F102FB1133236143B1084B15
:1033E8001B78C3EBC303DA00064B1B689D50F8BD7E
:1033F80094F82D00FFF736FF84F82D00EFE700BFA3
:1034080038030020D8010020398EE33838B5394B0D
:103418001B78C3EBC303DA00374B1B681344DC8803
:103428009B88E41AA4B20CE09D882544ADB2681EBE
:1034380000B2FEF7EDFC014628B2FEF7AFFC013CF6
:10344800A4B2BCB12B4B1B78C3EBC303DA002A4BE5
:103458001B6813449A7A12F0010FE5D0DD882D1B02
:10346800ADB2681C00B2FEF7D3FC014628B2FEF7E5
:1034780095FCE4E71F4B1B78C3EBC303DA001E4B34
:103488001C68144423697BB11A4B1B78C3EBC30334
:10349800DA00194B186881180B69B3FA83F35B09D2
:1034A8000B618B8A835038BD94F82D00FFF7DAFE44
:1034B80084F82D000F4B1B78C3EBC303DA000E4BC7
:1034C8001B6813449A7A12F0010F09D19C8893F86B
:1034D8002D00FFF747FD014620B2FEF75FFCD3E75A
:1034E800DC8893F82D00FFF73DFD014620B2FEF77A
:1034F80055FCC9E738030020D80100202DE9F8431E
:103508002A4B1B78C3EBC303DA00294B1B6813440F
:10351800DD69C5F30747C5F30726EDB29C880AE0C5
:10352800034472446144DBB2D2B2C9B24046FEF7EA
:103538005FFC0134A4B21D4B1B78C3EBC303DA0054
:103548001B4B1B681344DB88A3422CD30FFA84F867
:103558004046FEF75DFC4FEA104C5FFA8CF14FEAEB
:10356800102E5FFA8EF2C3B2791AB21AEB1A01F171
:103578000209B9F1040F03D94FEAE10909EB610126
:1035880002F10209B9F1040F03D94FEAE20909EB84
:10359800620203F10209B9F1040FC1D94FEAE30944
:1035A80009EB6303BCE7BDE8F88300BF38030020DC
:1035B800D801002070B5FFF7A1FF304B1A78C2EB95
:1035C800C202D3002E4A126813441869DC8899880D
:1035D800621A0132904230D29A7A12F0010F26D044
:1035E800201A996900B2FEF7D9FB244B1B78C3EB6C
:1035F800C303D800224B1D682B181969DA889C88E8
:10360800121B561CB1FBF6F406FB14147CB393F89A
:10361800304044F0010483F8304001315200B1FBDE
:10362800F2F402FB141119619B8A2B5070BD0844F7
:10363800996900B2FEF7B2FBD7E79D7A15F0010F42
:103648000AD0A0EB420014FA80F080B202309969E7
:1036580000B2FEF7A3FBC8E7C0EB420011FA80F006
:1036680080B20238996900B2FEF798FBBDE793F87B
:10367800304044F0010483F83040CEE7380300209E
:10368800D801002038B5FFF739FF184B1A78C2EB7C
:10369800C202D100164B1B680B449A7A12F0010F34
:1036A8001CD198881A691044996900B2FEF776FB14
:1036B8000E4B1B78C3EBC303D8000D4B1D682A18AB
:1036C80011690131D38894881B1B0133B1FBF3F4D2
:1036D80003FB14131361938A2B5038BDD8881A69D9
:1036E800801A996900B2FEF759FBE1E73803002018
:1036F800D8010020002A3FD0F0B51446FF2A39D05F
:103708004FEA106EC0F3074CC0F30727C0B20D0E86
:10371800C1F30743C1F30722C9B2C4F1FF060EFB88
:1037280006FE05FB04E5002D1CDB2D120CFB06FC38
:1037380003FB04C3002B17DB1B1207FB06F702FB76
:103748000472002A12DB121200FB06F001FB0404CB
:10375800002C0DDB180440EA056040EA022040EA2C
:103768002420F0BDFF35E0E7FF33E5E7FF32EAE765
:10377800FF34EFE70846F4E77047000038B5194B07
:103788001B78C3EBC303DA00174B1C681444226987
:10379800FF2A02DDC2F5FF720132D2B2E169A069E7
:1037A800FFF7A8FF0546A48805E0294620B2FEF7E2
:1037B800F5FA0134A4B20B4B1B78C3EBC303DA0050
:1037C800094B1B681344DA88A242EED21A69043204
:1037D8001A61B2F5007F01D300221A619A8A1A6031
:1037E80038BD00BF38030020D801002030B585B0AF
:1037F8000446514B1A78C2EBC202D1004F4B1B68EA
:103808000B4493F8262093F8251093F8240003AB73
:1038180001930DF10D0300930DF10E03FFF7E2F98B
:10382800002C39D0444B1B78C3EBC303DA00434B5D
:103838001B6813441B699DF80C209DF80D10C91ACC
:10384800BDF80E000DF1090301930DF10A03009371
:103858000DF10B03C9B2FFF735FA374D9DF8093062
:103868009DF80A209DF80B102878FFF7C1FA2B78ED
:10387800C3EBC303DA00314B19688B1893F8300097
:1038880010F0010F3AD154B318699DF80D50A842B1
:103898001ED20130186135E0274B1B78C3EBC303F8
:1038A800DA00264B1B6813441B699DF80C20D21ABA
:1038B8009DF80D10BDF80E000DF1090301930DF1EF
:1038C8000A0300930DF10B03D2B2FFF7FBF9C4E72B
:1038D80093F8300040F0010083F8300012E01869D6
:1038E8009DF80C50A84202D2013018610AE093F802
:1038F800300040F0010083F8300003E0186958B147
:10390800013818617CB99B8A9DF80C0093FBF0F391
:103918005B108B5005B030BD93F830006FF300009A
:1039280083F83000EEE79B8A9DF80D0093FBF0F3D7
:103938005B108B50EEE700BF38030020D801002051
:1039480008B50120FFF752FF08BD08B50020FFF7B2
:103958004DFF08BD38B51446154B1B78C3EBC302A1
:10396800D500144A12682A44D26812F0010F00D117
:1039780001461846FFF714FA0D4B1B78C3EBC30337
:10398800DA000C4B1B689918C86810F0010F06D1B3
:103998001CB9898A4908995038BD1421FBE71CB124
:1039A800898A14399950F7E7898A4908FAE700BFE4
:1039B80038030020D801002008B5074B1B78C3EB5B
:1039C800C303DA00054B1B6813440022D9699869C0
:1039D800FFF7C0FF08BD00BF38030020D801002052
:1039E80010B5084B1B78C3EBC303DA00064B1C6801
:1039F8001444207BFFF7B6FA0022E169FFF7AAFF1B
:103A080010BD00BF38030020D801002008B5074BBF
:103A18001B78C3EBC303DA00054B1B681344012270
:103A2800D9699869FFF796FF08BD00BF38030020E1
:103A3800D801002010B5084B1B78C3EBC303DA008C
:103A4800064B1C681444207BFFF78CFA0122E169BD
:103A5800FFF780FF10BD00BF38030020D801002009
:103A6800F8B51F4B1C78C4EBC404E5001D4B1B685C
:103A78002B441C69DD889B88EE1A771CBC420CD24B
:103A88002AB12C1B014620B2FEF788F90CE01C4431
:103A9800014620B2FEF782F906E0A01B0138D2B930
:103AA800184400B2FEF77AF90D4B1B78C3EBC30339
:103AB800D8000C4B1D682A1811690131D3889488E5
:103AC8001B1B01335B00B1FBF3F403FB14131361FD
:103AD800938A2B50F8BD281A00B2FEF75FF9E3E786
:103AE80038030020D801002008B5074B1B78C3EB2A
:103AF800C303DA00054B1B6813440022D96998698F
:103B0800FFF7AEFF08BD00BF38030020D801002032
:103B180008B5074B1B78C3EBC303DA00054B1B68DA
:103B2800134400229969D869FFF79AFF08BD00BFBE
:103B380038030020D801002008B5074B1B78C3EBD9
:103B4800C303DA00054B1B6813440122D96998693D
:103B5800FFF786FF08BD00BF38030020D80100200A
:103B680008B5074B1B78C3EBC303DA00054B1B688A
:103B7800134401229969D869FFF772FF08BD00BF95
:103B880038030020D801002038B5194B1B78C3EB47
:103B9800C303DA00174B1C6814442169E388A28820
:103BA8009B1A0133B1FBF3F203FB1213C3B1114C9F
:103BB8000F4D2B78C3EBC303DA002368134493F843
:103BC8002D00FFF7CFF900220146FFF749FF2B78B8
:103BD800C3EBC303DA0023689918898A995038BD62
:103BE80094F82D00FFF73EFB84F82D00DFE700BFB7
:103BF80038030020D801002010B5154B1B78C3EB03
:103C0800C303DA00134B1C6814442169E388A288B3
:103C18009B1A0133B1FBF3F203FB121383B10C4B74
:103C28001B78C3EBC303DA000A4B1B68134493F8F1
:103C38002D00FFF797F901220146FFF711FF10BD8C
:103C480094F82D00FFF70EFB84F82D00E7E700BF7E
:103C580038030020D8010020F8B506460D46284B49
:103C68001B78C3EBC303D900264B1A680A44D168F2
:103C7800254BA3FB01035B0803EB4303CB1AD3607B
:103C8800002416E0937A13F0010F05D0081B314683
:103C980000B2FEF783F80AE02044314600B2FEF78E
:103CA8007DF804E02044294600B2FEF777F8013495
:103CB800A4B2134B1B78C3EBC303DA00114B1B6888
:103CC8001A44D18890880B1A01339C4214DA0E4B9F
:103CD800A3FB04735B0803EB4303E31A9BB2D768A7
:103CE800BB42CFD0937A13F0010FDBD0081B2946D3
:103CF80000B2FEF753F8DAE7938A1360F8BD00BF05
:103D080038030020D8010020ABAAAAAA08B5064BA0
:103D18001B78C3EBC303DA00044B1B681344D9694F
:103D28009869FFF799FF08BD38030020D8010020E3
:103D380008B5094B1B78C3EBC303DA00074B1B68B4
:103D4800134418690130C0B21861FFF70BF900215C
:103D5800FFF782FF08BD00BF38030020D80100200C
:103D6800F8B506462F4B1B78C3EBC303DA002E4B7E
:103D78001B6813441A6952BB0D469C8805E0294606
:103D880020B2FEF70BF80134A4B2264B1B78C3EB24
:103D9800C303DA00244B1B681344DB88A342EED22A
:103DA80000F0AAFD214A82FB0032C317C3EBA2032D
:103DB80003EB430203EB8203C31A1A4A1278C2EBDD
:103DC800C202D100184A12680A4408331361164C1B
:103DD800144D2B78C3EBC303DA00236813449F8880
:103DE80000F08AFD2A78C2EBC202D30022681A4486
:103DF800D38892889B1A013390FBF3F203FB1200DD
:103E08003844314600B2FDF7C9FF2B78C3EBC30332
:103E1800DA00206883181969013919619B8A83506F
:103E2800F8BD00BF38030020D80100204FECC44E75
:103E380008B5064B1B78C3EBC303DA00044B1B68B9
:103E48001344D9699869FFF78BFF08BD3803002030
:103E5800D801002008B500F04FFD4342C0B2DBB2E4
:103E680058BF5842C0B2FFF77DF8064B1B78C3EB2A
:103E7800C303DA00044B1B681344D969FFF770FFCA
:103E880008BD00BF38030020D8010020F8B504465B
:103E9800FFF734FB00F030FD194B83FB0023A3EB45
:103EA800E07303EB430398420AD0164B1B78C3EB2D
:103EB800C303DA00144B1B689918898A9950F8BD16
:103EC800114E104F3B78C3EBC303DA003368134439
:103ED8009D8800F011FD3A78C2EBC202D300326827
:103EE8001A44D38892889B1A013390FBF3F203FBA0
:103EF80012002844214600B2FDF750FFD5E700BF65
:103F08005655555538030020D801002008B5064BF2
:103F18001B78C3EBC303DA00044B1B68134498698E
:103F2800FFF7B4FF08BD00BF38030020D801002008
:103F380008B500F0E1FC4342C0B2DBB258BF5842BA
:103F4800C0B2FFF70FF8FFF7A1FF08BD2DE9F8434E
:103F58000F461646524B1A78C2EBC202D300514A9A
:103F680012681344B3F810E00EF10105B3F806C067
:103F78009988ACEB0102013295FBF2F402FB145470
:103F8800A4B204F1010898FBF2F502FB158295B280
:103F98009B7A13F0010F4DD0ACEB0E0C01460FFAD3
:103FA8008CF0FDF7FBFEDFF8FC80DFF8F49099F861
:103FB8000030C3EBC303DA00D8F800301344D888C4
:103FC800001B394600B2FDF7E9FE99F80030C3EB53
:103FD800C303DA00D8F800301344D888401B3146B0
:103FE80000B2FDF7DBFE002C4BD02D4B1B78C3EB4A
:103FF800C303DA002B4B1B68134493F830206FF38C
:10400800000283F83020264B1B78C3EBC303D9008A
:10401800244B1C68601802690132234BA3FB02532E
:104028005B0903EB8303DD00531B0361838A635041
:10403800BDE8F8838E4401460FFA8EF0FDF7AEFE18
:10404800DFF86080DFF8589099F80030C3EBC303BD
:10405800DA00D8F80030134498882044394600B272
:10406800FDF79CFE99F80030C3EBC303DA00D8F8DB
:104078000030134498882844314600B2FDF78EFE7C
:10408800B1E7074B1B78C3EBC303DA00054B1B688A
:10409800134493F8302042F0010283F83020B2E74D
:1040A80038030020D8010020CDCCCCCC08B5074B74
:1040B8001A78C2EBC202D100054B1B680B441A6A7E
:1040C800D9699869FFF742FF08BD00BF380300208F
:1040D800D801002008B5074B1B78C3EBC303DA00EF
:1040E800054B1B6813446FF07F4211469869FFF730
:1040F8002DFF08BD38030020D801002008B5074B64
:104108001B78C3EBC303DA00054B1B68134400227A
:1041180011469869FFF71AFF08BD00BF3803002051
:10412800D801002008B5074B1B78C3EBC303DA009E
:10413800054B1B68134499690A466FF07F40FFF7E7
:1041480005FF08BD38030020D801002010B5114B29
:104158001B78C3EBC303DA000F4B1C6814442369B4
:104168008BB10C4B1B78C3EBC303DA000A4B1B68FB
:10417800134493F82D00FEF7F5FE6FF07F421146C9
:10418800FFF7E4FE10BD94F82D00FFF76BF884F8F4
:104198002D00E6E738030020D8010020F8B5174BBA
:1041A8001B78C3EBC303DA00154B1B681A44136969
:1041B800581C144CA4FB0014640904EB8404E100AB
:1041C800441A98B20002D5889388ED1A013590FBFD
:1041D800F5F0167B3044C0B2FEF7C4FE0746A0B225
:1041E800000290FBF5F03044C0B2FEF7BBFE024679
:1041F80039466FF07F40FFF7A9FEF8BD380300206D
:10420800D8010020CDCCCCCC08B50F4B1A78C2EB26
:10421800C202D1000D4B1B680B44DA889888121A29
:10422800501C4FF4807292FBF0F2D2B2187B1B69DB
:1042380013FB02F21044C0B2FEF794FE6FF07F4207
:104248001146FFF783FE08BD38030020D80100207F
:1042580008B50F4B1A78C2EBC202D1000D4B1B6890
:104268000B44DA889888121A501C4FF4807292FB1B
:10427800F0F2D2B2187B1B6913FB02F21044C0B2F1
:10428800FEF770FE00221146FFF760FE08BD00BF72
:1042980038030020D801002070B505460E460024DA
:1042A80016E09B7A13F0010F05D02044294600B28E
:1042B800FDF774FD0AE0081B294600B2FDF76EFD04
:1042C80004E0081B314600B2FDF768FD0134A4B2D2
:1042D800124B1A78C2EBC202D300114A1268134477
:1042E800D98898880A1A013294420FDA1A69224446
:1042F80002F00302012AD4D99B7A13F0010FE0D00F
:104308002044294600B2FDF749FDDFE71A6901326A
:1043180002F003021A619A8A1A6070BD38030020FD
:10432800D801002008B5074B1B78C3EBC303DA009C
:10433800054B1B6813446FF07F419869FFF7ACFF8A
:1043480008BD00BF38030020D801002008B5FF21B0
:104358004FF47F00FFF7A0FF08BD08B54FF47F4179
:104368004FF47F00FFF798FF08BD000008B5024929
:104378000248FFF791FF08BD0030FF0080004000B1
:104388002DE9F0410446FFF7B9F8FDF74FFD4D4B15
:104398001B78C3EBC303D9004B4B1A680A449388B4
:1043A800013303EB43039BB2D18801EB410189B28E
:1043B8000EE0DA1E855CC25C02EB9502DD1C455DF1
:1043C80002EB9502FF2A28BFFF22C25401339BB299
:1043D8008B42EED33D4B1B78A3B3002550E001354B
:1043E800ADB2012D62D800F087FA394A82FB00325B
:1043F800C317C3EBA20303EB83035A009042EED129
:10440800314FDFF8C08098F80030C3EBC303DA00FF
:104418003B6813449E8800F06FFA98F80030C3EBAD
:10442800C303D9003A680A44D38892889B1A013397
:1044380090FBF3F203FB12003044214600B2FDF773
:10444800ADFCCCE70025CCE7012398422EDA00F03A
:1044580053FA1C4B1A78C2EBC202D1001A4B1A68E5
:104468000A44D38892889B1A013390FBF3F203FB2A
:1044780012003044214600B2FDF790FC0135ADB280
:104488002846104B1B78C3EBC303D9000E4B1A68A0
:104498000A44D38896889B1B0133132BD4DD0C4A1E
:1044A80082FB0312DB17C3EBA203CEE7054B1B7895
:1044B800C3EBC303DA00044B1B689918898A995027
:1044C800BDE8F08138030020D80100204503002012
:1044D8006766666608B5064B1B78C3EBC303DA004C
:1044E800044B1B6813449869FFF74AFF08BD00BFD7
:1044F80038030020D801002008B500F0FDF9434238
:10450800C0B2DBB258BF5842C0B2FEF72BFDFFF76E
:1045180037FF08BD2DE9F041214B1B78C3EBC303DE
:10452800DA00204B1B6813449E69370AF9B2F2B2CD
:10453800C6F30748914207D215464545B8BF4546D8
:1045480095FBF0F59C881CE0FDB2F6E700F0D4F985
:10455800EAB290FBF2F302FB1300A8EB000121EA98
:10456800E171FAB2121A22EAE272F3B21B1A23EAD2
:10457800E373DBB2D2B2C9B220B2FDF739FC013421
:10458800A4B2074B1B78C3EBC303DA00054B1B68C7
:104598001344DA88A242D9D29A8A1A60BDE8F08117
:1045A80038030020D801002008B50320FFF7B2FF28
:1045B80008BD08B50620FFF7ADFF08BD08B5012006
:1045C800FFF7A8FF08BD00002DE9F0410646884620
:1045D8001746254B1B78C3EBC303DA00234B1B6834
:1045E80013441A69224CA4FB0234A40804EB4404C3
:1045F8006300D41AA4B200250DE0314600249B7A4A
:1046080013F0010F23D0284400B2FDF7C7FB013592
:10461800ADB20134A4B2144B1A78C2EBC202D10075
:10462800124B1B680B44B3F806C09888ACEB000229
:104638000132954211DA052CDFD8012C03D9032C5D
:1046480003D93946DBE73146D9E74146D7E7ACEB32
:10465800050000B2FDF7A2FBD9E71A6901321A6119
:104668009A8A1A60BDE8F08138030020D80100203A
:10467800ABAAAAAA08B5074B1A78C2EBC202D100A6
:10468800054B1B680B441A6AD9699869FFF79CFFA8
:1046980008BD00BF38030020D801002008B500225B
:1046A8006FF07F414FF47F00FFF78EFF08BD0000D9
:1046B800DFF834D0002103E00C4B5B584350043141
:1046C8000B480C4B42189A42F6D30B4A02E00023DF
:1046D80042F8043B094B9A42F9D3FDF733FB00F04B
:1046E80019F8FDF71BFA704700000220F04B00088C
:1046F8000000002088010020880100204C030020D1
:10470800FEE70000024B0A460146186800F03EB872
:104718002401002070B50D4E0D4CA41BA4100025DB
:10472800A54209D10B4E0C4C00F03AF9A41BA41079
:104738000025A54205D170BD56F8253098470135AA
:10474800EEE756F8253098470135F2E7E84B0008C0
:10475800E84B0008E84B0008EC4B0008024B014608
:10476800186800F06FB800BF24010020024B014612
:10477800186800F019B800BF24010020024403465D
:10478800934200D1704703F8011BF9E738B502FBE3
:1047980001F4214600F056F8054618B122460021DA
:1047A800FFF7ECFF284638BD38B50546002945D047
:1047B80051F8043C0C1F002BB8BFE41800F0E0F8D7
:1047C8001F4A1368104633B9636014602846BDE871
:1047D800384000F0D6B8A3420CD921686218934239
:1047E80004BF1A685B68636004BF521822600460E3
:1047F800ECE713465A680AB1A242FAD91968581860
:10480800A0420BD120680144581882421960DDD1BA
:10481800106852685A6001441960D7E702D90C231E
:104828002B60D3E7206821188A4204BF11685268B8
:10483800626004BF091821605C60C7E738BD00BF2B
:10484800E001002070B5CD1C25F0030508350C2DBE
:1048580038BF0C25002D064601DBA94203D90C23DD
:104868003360002070BD00F08BF8214A146821469F
:1048780091B9204C23681BB9304600F071F82060CC
:104888002946304600F06CF8431C24D10C233360D1
:10489800304600F076F8E4E70B685B1B18D40B2B66
:1048A8000FD90B60CD50CC18304600F06AF804F1EF
:1048B8000B00231D20F00700C31AD3D05A42E25040
:1048C800D0E78C424B6816BF636013600C46EBE779
:1048D8000C464968CCE7C41C24F00304A04205D068
:1048E800211A304600F03CF80130CFD02560DBE7D4
:1048F800E0010020E401002038B5134B1C68A36BCD
:104908007BB91820FFF72AFF104A114BA063C0E9B2
:104918000023104B83600B23838101220023C0E90D
:104928000423A16B0C480A694B690C4C504304FBE7
:104938000300A2FB04230344541C43F10005C1E90E
:10494800044525F0004038BD240100200E33CDABCE
:1049580034126DE6ECDE05002DF451582D7F954C90
:1049680038B5064C002305460846236000F00AF8CF
:10497800431C02D1236803B12B6038BD48030020D3
:1049880070477047044A05491368002B08BF0B4657
:104998001844106018467047E801002050030020B2
:1049A800F8B500BFF8BC08BC9E467047F8B500BF14
:0849B800F8BC08BC9E467047E4
:1049C000000610160006101600000000000000008F
:1049D00001020304060708090000000001020304A5
:1049E000808386898C8F9295989B9EA2A5A7AAAD5D
:1049F000B0B3B6B9BCBEC1C4C6C9CBCED0D3D5D76F
:104A0000DADCDEE0E2E4E6E8EAEBEDEEF0F1F3F426
:104A1000F5F6F8F9FAFAFBFCFDFDFEFEFEFFFFFFDE
:104A2000FFFFFFFFFEFEFEFDFDFCFBFAFAF9F8F6C4
:104A3000F5F4F3F1F0EEEDEBEAE8E6E4E2E0DEDCDB
:104A4000DAD7D5D3D0CECBC9C6C4C1BEBCB9B6B3F4
:104A5000B0ADAAA7A5A29E9B9895928F8C898683BC
:104A6000807C797673706D6A6764615D5A585552BF
:104A70004F4C494643413E3B393634312F2C2A288E
:104A80002523211F1D1B1917151412110F0E0C0BB6
:104A90000A090706050504030202010101000000DE
:104AA00000000000010101020203040505060709D8
:104AB0000A0B0C0E0F1112141517191B1D1F2123A1
:104AC00025282A2C2F313436393B3E414346494C68
:104AD0004F5255585A5D6164676A6D707376797C80
:104AE00000000000000000000000000000000000C6
:104AF00000000000000000000101010101010101AE
:104B00000101010102020202020202020303030385
:104B10000303040404040505050505060606060747
:104B200007070808080909090A0A0A0B0B0B0C0CED
:104B30000D0D0D0E0E0F0F10101111121213131474
:104B4000141515161617181819191A1B1B1C1D1DDC
:104B50001E1F1F2021222223242526262728292A1A
:104B60002A2B2C2D2E2F303132333435363738392D
:104B70003A3B3C3D3E3F4041424445464748494B15
:104B80004C4D4E50515254555658595A5C5D5E60CA
:104B90006163646667696A6C6D6F7072737577784C
:104BA0007A7C7D7F8182848688898B8D8F91929497
:104BB00096989A9C9EA0A2A4A6A8AAACAEB0B2B4A5
:104BC000B6B8BABCBFC1C3C5C7CACCCED1D3D5D77E
:104BD000DADCDFE1E3E6E8EBEDF0F2F5F7FAFCFF13
:084BE000A0BAFF7F01000000F4
:044BE800AD01000813
:044BEC008901000833
:104BF000010000001000000010270000010000006C
:104C000001000000010000000100000001000000A0
:104C100006000000080000000C0000000800000072
:104C2000060000000024F40061270008493900084C
:104C300053390008C1390008E9390008153A00085D
:104C40003D3A0008612E0008F13A0008193B0008BF
:104C5000413B0008693B0008913B0008013C00080B
:104C6000A1320008B52F000871300008CD300008CF
:104C7000253100088537000845200008E12000089C
:104C8000153D0008393D0008A9270008393E0008F5
:104C90005D3E0008153F0008393F000885210008E7
:104CA000ED210008C5220008AD2300082D410008B1
:104CB000DD40000855410008114200088524000825
:104CC000F5320008A54100080541000859420008D6
:104CD0002D4300085543000815340008BD35000871
:104CE0008D360008DD4400080145000863430008D4
:104CF000B1450008BB450008C5450008A5460008A9
:104D000075430008B54000087D4600088D25000861
:104D10007D31000828010020000000000000000094
:104D20000000000000000000000000000000000083
:104D30000000000000000000000000000000000073
:104D40000000000000000000000000000000000063
:104D50000000000000000000000000000000000053
:104D60000000000000000000000000000000000043
:084D700000000000000000003B
:04000005080046B9F0
:00000001FF
